{
  "_format": "hh-sol-artifact-1",
  "contractName": "RewardSystem",
  "sourceName": "contracts/RewardSystem.sol",
  "abi": [
    {
      "inputs": [
        {
          "internalType": "address",
          "name": "_tokenAddress",
          "type": "address"
        },
        {
          "internalType": "address",
          "name": "_nftAddress",
          "type": "address"
        }
      ],
      "stateMutability": "nonpayable",
      "type": "constructor"
    },
    {
      "anonymous": false,
      "inputs": [
        {
          "indexed": true,
          "internalType": "address",
          "name": "user",
          "type": "address"
        },
        {
          "indexed": false,
          "internalType": "uint256",
          "name": "achievementId",
          "type": "uint256"
        }
      ],
      "name": "AchievementEarned",
      "type": "event"
    },
    {
      "anonymous": false,
      "inputs": [
        {
          "indexed": true,
          "internalType": "address",
          "name": "user",
          "type": "address"
        },
        {
          "indexed": false,
          "internalType": "string",
          "name": "moduleId",
          "type": "string"
        },
        {
          "indexed": false,
          "internalType": "uint256",
          "name": "reward",
          "type": "uint256"
        }
      ],
      "name": "ModuleCompleted",
      "type": "event"
    },
    {
      "inputs": [],
      "name": "achievementNFT",
      "outputs": [
        {
          "internalType": "contract AchievementNFT",
          "name": "",
          "type": "address"
        }
      ],
      "stateMutability": "view",
      "type": "function"
    },
    {
      "inputs": [
        {
          "internalType": "uint256",
          "name": "",
          "type": "uint256"
        }
      ],
      "name": "achievements",
      "outputs": [
        {
          "internalType": "bool",
          "name": "",
          "type": "bool"
        }
      ],
      "stateMutability": "view",
      "type": "function"
    },
    {
      "inputs": [
        {
          "internalType": "string",
          "name": "moduleId",
          "type": "string"
        }
      ],
      "name": "completeModule",
      "outputs": [],
      "stateMutability": "nonpayable",
      "type": "function"
    },
    {
      "inputs": [
        {
          "internalType": "address",
          "name": "",
          "type": "address"
        },
        {
          "internalType": "string",
          "name": "",
          "type": "string"
        }
      ],
      "name": "completedModules",
      "outputs": [
        {
          "internalType": "bool",
          "name": "",
          "type": "bool"
        }
      ],
      "stateMutability": "view",
      "type": "function"
    },
    {
      "inputs": [],
      "name": "learnToken",
      "outputs": [
        {
          "internalType": "contract LearnToken",
          "name": "",
          "type": "address"
        }
      ],
      "stateMutability": "view",
      "type": "function"
    },
    {
      "inputs": [
        {
          "internalType": "string",
          "name": "",
          "type": "string"
        }
      ],
      "name": "moduleRewards",
      "outputs": [
        {
          "internalType": "uint256",
          "name": "",
          "type": "uint256"
        }
      ],
      "stateMutability": "view",
      "type": "function"
    },
    {
      "inputs": [],
      "name": "owner",
      "outputs": [
        {
          "internalType": "address",
          "name": "",
          "type": "address"
        }
      ],
      "stateMutability": "view",
      "type": "function"
    },
    {
      "inputs": [
        {
          "internalType": "string",
          "name": "moduleId",
          "type": "string"
        },
        {
          "internalType": "uint256",
          "name": "reward",
          "type": "uint256"
        }
      ],
      "name": "setModuleReward",
      "outputs": [],
      "stateMutability": "nonpayable",
      "type": "function"
    },
    {
      "inputs": [
        {
          "internalType": "address",
          "name": "",
          "type": "address"
        },
        {
          "internalType": "uint256",
          "name": "",
          "type": "uint256"
        }
      ],
      "name": "userAchievements",
      "outputs": [
        {
          "internalType": "uint256",
          "name": "",
          "type": "uint256"
        }
      ],
      "stateMutability": "view",
      "type": "function"
    }
  ],
  "bytecode": "0x60806040523480156200001157600080fd5b5060405162000ee638038062000ee68339810160408190526200003491620001ef565b600080546001600160a01b038085166001600160a01b031992831617909255600180549284169282169290921790915560028054909116331790556040516064906003906200008e9064696e74726f60d81b815260050190565b908152604080519182900360209081018320939093556718591d985b98d95960c21b825260036008830152805191829003602801822061012c905560005463313ce56760e01b835290516001600160a01b039091169263a9059cbb923092859263313ce56792600480820193918290030181865afa15801562000115573d6000803e3d6000fd5b505050506040513d601f19601f820116820180604052508101906200013b919062000227565b6200014890600a62000368565b6200015790620186a062000379565b6040516001600160e01b031960e085901b1681526001600160a01b03909216600483015260248201526044016020604051808303816000875af1158015620001a3573d6000803e3d6000fd5b505050506040513d601f19601f82011682018060405250810190620001c9919062000393565b505050620003b7565b80516001600160a01b0381168114620001ea57600080fd5b919050565b600080604083850312156200020357600080fd5b6200020e83620001d2565b91506200021e60208401620001d2565b90509250929050565b6000602082840312156200023a57600080fd5b815160ff811681146200024c57600080fd5b9392505050565b634e487b7160e01b600052601160045260246000fd5b600181815b80851115620002aa5781600019048211156200028e576200028e62000253565b808516156200029c57918102915b93841c93908002906200026e565b509250929050565b600082620002c35750600162000362565b81620002d25750600062000362565b8160018114620002eb5760028114620002f65762000316565b600191505062000362565b60ff8411156200030a576200030a62000253565b50506001821b62000362565b5060208310610133831016604e8410600b84101617156200033b575081810a62000362565b62000347838362000269565b80600019048211156200035e576200035e62000253565b0290505b92915050565b60006200024c60ff841683620002b2565b808202811582820484141762000362576200036262000253565b600060208284031215620003a657600080fd5b815180151581146200024c57600080fd5b610b1f80620003c76000396000f3fe608060405234801561001057600080fd5b50600436106100935760003560e01c80638da5cb5b116100665780638da5cb5b146101455780639767571a14610170578063999555da1461019b578063c47375f9146101ae578063c7e82048146101c157600080fd5b806314a31b5c1461009857806324548c60146100ec57806327aed72e1461010d57806345701c5014610130575b600080fd5b6100d76100a63660046107d4565b6005602090815260009283526040909220815180830184018051928152908401929093019190912091525460ff1681565b60405190151581526020015b60405180910390f35b6100ff6100fa366004610822565b6101d4565b6040519081526020016100e3565b6100d761011b36600461084c565b60046020526000908152604090205460ff1681565b61014361013e366004610865565b610205565b005b600254610158906001600160a01b031681565b6040516001600160a01b0390911681526020016100e3565b6100ff61017e3660046108aa565b805160208183018101805160038252928201919093012091525481565b6101436101a93660046108aa565b610275565b600154610158906001600160a01b031681565b600054610158906001600160a01b031681565b600660205281600052604060002081815481106101f057600080fd5b90600052602060002001600091509150505481565b6002546001600160a01b031633146102505760405162461bcd60e51b81526020600482015260096024820152682737ba1037bbb732b960b91b60448201526064015b60405180910390fd5b80600383604051610261919061090b565b908152604051908190036020019020555050565b3360009081526005602052604090819020905161029390839061090b565b9081526040519081900360200190205460ff16156102f35760405162461bcd60e51b815260206004820152601860248201527f4d6f64756c6520616c726561647920636f6d706c6574656400000000000000006044820152606401610247565b6000600382604051610305919061090b565b908152602001604051809103902054116103525760405162461bcd60e51b815260206004820152600e60248201526d496e76616c6964206d6f64756c6560901b6044820152606401610247565b336000908152600560205260409081902090516001919061037490849061090b565b908152604051908190036020018120805492151560ff19909316929092179091556000906003906103a690849061090b565b90815260408051602092819003830181205460005463313ce56760e01b835292519094506001600160a01b039092169263a9059cbb923392859263313ce567926004808401938290030181865afa158015610405573d6000803e3d6000fd5b505050506040513d601f19601f820116820180604052508101906104299190610927565b61043490600a610a4d565b61043e9085610a5c565b6040516001600160e01b031960e085901b1681526001600160a01b03909216600483015260248201526044016020604051808303816000875af1158015610489573d6000803e3d6000fd5b505050506040513d601f19601f820116820180604052508101906104ad9190610a73565b50336001600160a01b03167f9aa2bfd838ec4df909c773099e08a8cb9844cf2bf5e4ba549acb3c62cad1fc1183836040516104e9929190610a95565b60405180910390a26104fa336104fe565b5050565b6001600160a01b038116600090815260056020819052604091829020915164696e74726f60d81b8152019081526040519081900360200190205460ff16801561058357506001600160a01b0381166000908152600560205260409081902090516718591d985b98d95960c21b81526008019081526040519081900360200190205460ff165b80156105bb5750600160005260046020527fabd6e7cb50984ff9c2f3e18a2660c3353dadf4e3291deeb275dae2cd1e44fe055460ff16155b156105cb576105cb8160016105ce565b50565b60008181526004602052604090205460ff161561062d5760405162461bcd60e51b815260206004820152601b60248201527f416368696576656d656e7420616c7265616479206772616e74656400000000006044820152606401610247565b6001546040516335313c2160e11b81526001600160a01b03848116600483015290911690636a627842906024016020604051808303816000875af1158015610679573d6000803e3d6000fd5b505050506040513d601f19601f8201168201806040525081019061069d9190610ad0565b506000818152600460209081526040808320805460ff191660019081179091556001600160a01b038616808552600684528285208054928301815585529383902001849055518381527f227c97f225356ea6e988e493fcabed63e0f79ce833cc3cb721e927daf7b765e5910160405180910390a25050565b80356001600160a01b038116811461072c57600080fd5b919050565b634e487b7160e01b600052604160045260246000fd5b600082601f83011261075857600080fd5b813567ffffffffffffffff8082111561077357610773610731565b604051601f8301601f19908116603f0116810190828211818310171561079b5761079b610731565b816040528381528660208588010111156107b457600080fd5b836020870160208301376000602085830101528094505050505092915050565b600080604083850312156107e757600080fd5b6107f083610715565b9150602083013567ffffffffffffffff81111561080c57600080fd5b61081885828601610747565b9150509250929050565b6000806040838503121561083557600080fd5b61083e83610715565b946020939093013593505050565b60006020828403121561085e57600080fd5b5035919050565b6000806040838503121561087857600080fd5b823567ffffffffffffffff81111561088f57600080fd5b61089b85828601610747565b95602094909401359450505050565b6000602082840312156108bc57600080fd5b813567ffffffffffffffff8111156108d357600080fd5b6108df84828501610747565b949350505050565b60005b838110156109025781810151838201526020016108ea565b50506000910152565b6000825161091d8184602087016108e7565b9190910192915050565b60006020828403121561093957600080fd5b815160ff8116811461094a57600080fd5b9392505050565b634e487b7160e01b600052601160045260246000fd5b600181815b808511156109a257816000190482111561098857610988610951565b8085161561099557918102915b93841c939080029061096c565b509250929050565b6000826109b957506001610a47565b816109c657506000610a47565b81600181146109dc57600281146109e657610a02565b6001915050610a47565b60ff8411156109f7576109f7610951565b50506001821b610a47565b5060208310610133831016604e8410600b8410161715610a25575081810a610a47565b610a2f8383610967565b8060001904821115610a4357610a43610951565b0290505b92915050565b600061094a60ff8416836109aa565b8082028115828204841417610a4757610a47610951565b600060208284031215610a8557600080fd5b8151801515811461094a57600080fd5b6040815260008351806040840152610ab48160608501602088016108e7565b602083019390935250601f91909101601f191601606001919050565b600060208284031215610ae257600080fd5b505191905056fea264697066735822122081994f6ca7549d953c54e177a61741abb5df36f2c5635d76e14d840ea70488be64736f6c63430008140033",
  "linkReferences": {},
  "deployedLinkReferences": {}
}