{
  "_format": "hh-sol-artifact-1",
  "contractName": "LearnToEarn",
  "sourceName": "contracts/LearnToEarn.sol",
  "abi": [
    {
      "inputs": [
        {
          "internalType": "address",
          "name": "tokenAddress",
          "type": "address"
        }
      ],
      "stateMutability": "nonpayable",
      "type": "constructor"
    },
    {
      "inputs": [],
      "name": "learnToken",
      "outputs": [
        {
          "internalType": "contract LearnToken",
          "name": "",
          "type": "address"
        }
      ],
      "stateMutability": "view",
      "type": "function"
    },
    {
      "inputs": [
        {
          "internalType": "address",
          "name": "",
          "type": "address"
        }
      ],
      "name": "progress",
      "outputs": [
        {
          "internalType": "uint256",
          "name": "",
          "type": "uint256"
        }
      ],
      "stateMutability": "view",
      "type": "function"
    },
    {
      "inputs": [],
      "name": "rewardPerProgress",
      "outputs": [
        {
          "internalType": "uint256",
          "name": "",
          "type": "uint256"
        }
      ],
      "stateMutability": "view",
      "type": "function"
    },
    {
      "inputs": [
        {
          "internalType": "uint256",
          "name": "newReward",
          "type": "uint256"
        }
      ],
      "name": "setRewardPerProgress",
      "outputs": [],
      "stateMutability": "nonpayable",
      "type": "function"
    },
    {
      "inputs": [
        {
          "internalType": "address",
          "name": "learner",
          "type": "address"
        },
        {
          "internalType": "uint256",
          "name": "progressUpdate",
          "type": "uint256"
        }
      ],
      "name": "updateProgress",
      "outputs": [],
      "stateMutability": "nonpayable",
      "type": "function"
    }
  ],
  "bytecode": "0x6080604052678ac7230489e8000060025534801561001c57600080fd5b5060405161043f38038061043f83398101604081905261003b91610060565b600080546001600160a01b0319166001600160a01b0392909216919091179055610090565b60006020828403121561007257600080fd5b81516001600160a01b038116811461008957600080fd5b9392505050565b6103a08061009f6000396000f3fe608060405234801561001057600080fd5b50600436106100575760003560e01c8063472e411d1461005c5780635f50020f146100785780636f2059d21461008d578063c7e82048146100a0578063da8589a2146100cb575b600080fd5b61006560025481565b6040519081526020015b60405180910390f35b61008b610086366004610284565b6100eb565b005b61008b61009b3660046102ae565b600255565b6000546100b3906001600160a01b031681565b6040516001600160a01b03909116815260200161006f565b6100656100d93660046102c7565b60016020526000908152604090205481565b6001600160a01b038216600090815260016020526040812080548392906101139084906102ff565b90915550506002546000906101289083610318565b6000546040516370a0823160e01b815230600482015291925082916001600160a01b03909116906370a0823190602401602060405180830381865afa158015610175573d6000803e3d6000fd5b505050506040513d601f19601f82011682018060405250810190610199919061032f565b10156101eb5760405162461bcd60e51b815260206004820152601b60248201527f4e6f7420656e6f75676820746f6b656e7320746f207265776172640000000000604482015260640160405180910390fd5b60005460405163a9059cbb60e01b81526001600160a01b038581166004830152602482018490529091169063a9059cbb906044016020604051808303816000875af115801561023e573d6000803e3d6000fd5b505050506040513d601f19601f820116820180604052508101906102629190610348565b50505050565b80356001600160a01b038116811461027f57600080fd5b919050565b6000806040838503121561029757600080fd5b6102a083610268565b946020939093013593505050565b6000602082840312156102c057600080fd5b5035919050565b6000602082840312156102d957600080fd5b6102e282610268565b9392505050565b634e487b7160e01b600052601160045260246000fd5b80820180821115610312576103126102e9565b92915050565b8082028115828204841417610312576103126102e9565b60006020828403121561034157600080fd5b5051919050565b60006020828403121561035a57600080fd5b815180151581146102e257600080fdfea26469706673582212202e8129e46ec221243fd043020012c604891d819dd66664c9a913d74458dda01964736f6c63430008140033",
  "linkReferences": {},
  "deployedLinkReferences": {}
}