{
  "_format": "hh-sol-artifact-1",
  "contractName": "AchievementNFT",
  "sourceName": "contracts/AchievementNFT.sol",
  "abi": [
    {
      "inputs": [
        {
          "internalType": "address",
          "name": "initialOwner",
          "type": "address"
        }
      ],
      "stateMutability": "nonpayable",
      "type": "constructor"
    },
    {
      "inputs": [
        {
          "internalType": "address",
          "name": "sender",
          "type": "address"
        },
        {
          "internalType": "uint256",
          "name": "tokenId",
          "type": "uint256"
        },
        {
          "internalType": "address",
          "name": "owner",
          "type": "address"
        }
      ],
      "name": "ERC721IncorrectOwner",
      "type": "error"
    },
    {
      "inputs": [
        {
          "internalType": "address",
          "name": "operator",
          "type": "address"
        },
        {
          "internalType": "uint256",
          "name": "tokenId",
          "type": "uint256"
        }
      ],
      "name": "ERC721InsufficientApproval",
      "type": "error"
    },
    {
      "inputs": [
        {
          "internalType": "address",
          "name": "approver",
          "type": "address"
        }
      ],
      "name": "ERC721InvalidApprover",
      "type": "error"
    },
    {
      "inputs": [
        {
          "internalType": "address",
          "name": "operator",
          "type": "address"
        }
      ],
      "name": "ERC721InvalidOperator",
      "type": "error"
    },
    {
      "inputs": [
        {
          "internalType": "address",
          "name": "owner",
          "type": "address"
        }
      ],
      "name": "ERC721InvalidOwner",
      "type": "error"
    },
    {
      "inputs": [
        {
          "internalType": "address",
          "name": "receiver",
          "type": "address"
        }
      ],
      "name": "ERC721InvalidReceiver",
      "type": "error"
    },
    {
      "inputs": [
        {
          "internalType": "address",
          "name": "sender",
          "type": "address"
        }
      ],
      "name": "ERC721InvalidSender",
      "type": "error"
    },
    {
      "inputs": [
        {
          "internalType": "uint256",
          "name": "tokenId",
          "type": "uint256"
        }
      ],
      "name": "ERC721NonexistentToken",
      "type": "error"
    },
    {
      "inputs": [
        {
          "internalType": "address",
          "name": "owner",
          "type": "address"
        }
      ],
      "name": "OwnableInvalidOwner",
      "type": "error"
    },
    {
      "inputs": [
        {
          "internalType": "address",
          "name": "account",
          "type": "address"
        }
      ],
      "name": "OwnableUnauthorizedAccount",
      "type": "error"
    },
    {
      "anonymous": false,
      "inputs": [
        {
          "indexed": true,
          "internalType": "address",
          "name": "owner",
          "type": "address"
        },
        {
          "indexed": true,
          "internalType": "address",
          "name": "approved",
          "type": "address"
        },
        {
          "indexed": true,
          "internalType": "uint256",
          "name": "tokenId",
          "type": "uint256"
        }
      ],
      "name": "Approval",
      "type": "event"
    },
    {
      "anonymous": false,
      "inputs": [
        {
          "indexed": true,
          "internalType": "address",
          "name": "owner",
          "type": "address"
        },
        {
          "indexed": true,
          "internalType": "address",
          "name": "operator",
          "type": "address"
        },
        {
          "indexed": false,
          "internalType": "bool",
          "name": "approved",
          "type": "bool"
        }
      ],
      "name": "ApprovalForAll",
      "type": "event"
    },
    {
      "anonymous": false,
      "inputs": [
        {
          "indexed": true,
          "internalType": "address",
          "name": "previousOwner",
          "type": "address"
        },
        {
          "indexed": true,
          "internalType": "address",
          "name": "newOwner",
          "type": "address"
        }
      ],
      "name": "OwnershipTransferred",
      "type": "event"
    },
    {
      "anonymous": false,
      "inputs": [
        {
          "indexed": true,
          "internalType": "address",
          "name": "from",
          "type": "address"
        },
        {
          "indexed": true,
          "internalType": "address",
          "name": "to",
          "type": "address"
        },
        {
          "indexed": true,
          "internalType": "uint256",
          "name": "tokenId",
          "type": "uint256"
        }
      ],
      "name": "Transfer",
      "type": "event"
    },
    {
      "inputs": [
        {
          "internalType": "address",
          "name": "to",
          "type": "address"
        },
        {
          "internalType": "uint256",
          "name": "tokenId",
          "type": "uint256"
        }
      ],
      "name": "approve",
      "outputs": [],
      "stateMutability": "nonpayable",
      "type": "function"
    },
    {
      "inputs": [
        {
          "internalType": "address",
          "name": "owner",
          "type": "address"
        }
      ],
      "name": "balanceOf",
      "outputs": [
        {
          "internalType": "uint256",
          "name": "",
          "type": "uint256"
        }
      ],
      "stateMutability": "view",
      "type": "function"
    },
    {
      "inputs": [
        {
          "internalType": "uint256",
          "name": "tokenId",
          "type": "uint256"
        }
      ],
      "name": "getApproved",
      "outputs": [
        {
          "internalType": "address",
          "name": "",
          "type": "address"
        }
      ],
      "stateMutability": "view",
      "type": "function"
    },
    {
      "inputs": [
        {
          "internalType": "address",
          "name": "owner",
          "type": "address"
        },
        {
          "internalType": "address",
          "name": "operator",
          "type": "address"
        }
      ],
      "name": "isApprovedForAll",
      "outputs": [
        {
          "internalType": "bool",
          "name": "",
          "type": "bool"
        }
      ],
      "stateMutability": "view",
      "type": "function"
    },
    {
      "inputs": [
        {
          "internalType": "address",
          "name": "to",
          "type": "address"
        }
      ],
      "name": "mint",
      "outputs": [
        {
          "internalType": "uint256",
          "name": "",
          "type": "uint256"
        }
      ],
      "stateMutability": "nonpayable",
      "type": "function"
    },
    {
      "inputs": [],
      "name": "name",
      "outputs": [
        {
          "internalType": "string",
          "name": "",
          "type": "string"
        }
      ],
      "stateMutability": "view",
      "type": "function"
    },
    {
      "inputs": [],
      "name": "owner",
      "outputs": [
        {
          "internalType": "address",
          "name": "",
          "type": "address"
        }
      ],
      "stateMutability": "view",
      "type": "function"
    },
    {
      "inputs": [
        {
          "internalType": "uint256",
          "name": "tokenId",
          "type": "uint256"
        }
      ],
      "name": "ownerOf",
      "outputs": [
        {
          "internalType": "address",
          "name": "",
          "type": "address"
        }
      ],
      "stateMutability": "view",
      "type": "function"
    },
    {
      "inputs": [],
      "name": "renounceOwnership",
      "outputs": [],
      "stateMutability": "nonpayable",
      "type": "function"
    },
    {
      "inputs": [
        {
          "internalType": "address",
          "name": "from",
          "type": "address"
        },
        {
          "internalType": "address",
          "name": "to",
          "type": "address"
        },
        {
          "internalType": "uint256",
          "name": "tokenId",
          "type": "uint256"
        }
      ],
      "name": "safeTransferFrom",
      "outputs": [],
      "stateMutability": "nonpayable",
      "type": "function"
    },
    {
      "inputs": [
        {
          "internalType": "address",
          "name": "from",
          "type": "address"
        },
        {
          "internalType": "address",
          "name": "to",
          "type": "address"
        },
        {
          "internalType": "uint256",
          "name": "tokenId",
          "type": "uint256"
        },
        {
          "internalType": "bytes",
          "name": "data",
          "type": "bytes"
        }
      ],
      "name": "safeTransferFrom",
      "outputs": [],
      "stateMutability": "nonpayable",
      "type": "function"
    },
    {
      "inputs": [
        {
          "internalType": "address",
          "name": "operator",
          "type": "address"
        },
        {
          "internalType": "bool",
          "name": "approved",
          "type": "bool"
        }
      ],
      "name": "setApprovalForAll",
      "outputs": [],
      "stateMutability": "nonpayable",
      "type": "function"
    },
    {
      "inputs": [
        {
          "internalType": "string",
          "name": "baseURI",
          "type": "string"
        }
      ],
      "name": "setBaseURI",
      "outputs": [],
      "stateMutability": "nonpayable",
      "type": "function"
    },
    {
      "inputs": [
        {
          "internalType": "bytes4",
          "name": "interfaceId",
          "type": "bytes4"
        }
      ],
      "name": "supportsInterface",
      "outputs": [
        {
          "internalType": "bool",
          "name": "",
          "type": "bool"
        }
      ],
      "stateMutability": "view",
      "type": "function"
    },
    {
      "inputs": [],
      "name": "symbol",
      "outputs": [
        {
          "internalType": "string",
          "name": "",
          "type": "string"
        }
      ],
      "stateMutability": "view",
      "type": "function"
    },
    {
      "inputs": [
        {
          "internalType": "uint256",
          "name": "tokenId",
          "type": "uint256"
        }
      ],
      "name": "tokenURI",
      "outputs": [
        {
          "internalType": "string",
          "name": "",
          "type": "string"
        }
      ],
      "stateMutability": "view",
      "type": "function"
    },
    {
      "inputs": [
        {
          "internalType": "address",
          "name": "from",
          "type": "address"
        },
        {
          "internalType": "address",
          "name": "to",
          "type": "address"
        },
        {
          "internalType": "uint256",
          "name": "tokenId",
          "type": "uint256"
        }
      ],
      "name": "transferFrom",
      "outputs": [],
      "stateMutability": "nonpayable",
      "type": "function"
    },
    {
      "inputs": [
        {
          "internalType": "address",
          "name": "newOwner",
          "type": "address"
        }
      ],
      "name": "transferOwnership",
      "outputs": [],
      "stateMutability": "nonpayable",
      "type": "function"
    }
  ],
  "bytecode": "0x60806040523480156200001157600080fd5b506040516200159438038062001594833981016040819052620000349162000132565b806040518060400160405280601081526020016f1319585c9b9058da1a595d995b595b9d60821b815250604051806040016040528060048152602001632620a92760e11b81525081600090816200008c919062000209565b5060016200009b828262000209565b5050506001600160a01b038116620000cd57604051631e4fbdf760e01b81526000600482015260240160405180910390fd5b620000d881620000e0565b5050620002d5565b600680546001600160a01b038381166001600160a01b0319831681179093556040519116919082907f8be0079c531659141344cd1fd0a4f28419497f9722a3daafe3b4186f6b6457e090600090a35050565b6000602082840312156200014557600080fd5b81516001600160a01b03811681146200015d57600080fd5b9392505050565b634e487b7160e01b600052604160045260246000fd5b600181811c908216806200018f57607f821691505b602082108103620001b057634e487b7160e01b600052602260045260246000fd5b50919050565b601f8211156200020457600081815260208120601f850160051c81016020861015620001df5750805b601f850160051c820191505b818110156200020057828155600101620001eb565b5050505b505050565b81516001600160401b0381111562000225576200022562000164565b6200023d816200023684546200017a565b84620001b6565b602080601f8311600181146200027557600084156200025c5750858301515b600019600386901b1c1916600185901b17855562000200565b600085815260208120601f198616915b82811015620002a65788860151825594840194600190910190840162000285565b5085821015620002c55787850151600019600388901b60f8161c191681555b5050505050600190811b01905550565b6112af80620002e56000396000f3fe608060405234801561001057600080fd5b50600436106101165760003560e01c806370a08231116100a2578063a22cb46511610071578063a22cb46514610239578063b88d4fde1461024c578063c87b56dd1461025f578063e985e9c514610272578063f2fde38b1461028557600080fd5b806370a0823114610205578063715018a6146102185780638da5cb5b1461022057806395d89b411461023157600080fd5b806323b872dd116100e957806323b872dd1461019857806342842e0e146101ab57806355f804b3146101be5780636352211e146101d15780636a627842146101e457600080fd5b806301ffc9a71461011b57806306fdde0314610143578063081812fc14610158578063095ea7b314610183575b600080fd5b61012e610129366004610d98565b610298565b60405190151581526020015b60405180910390f35b61014b6102ea565b60405161013a9190610e05565b61016b610166366004610e18565b61037c565b6040516001600160a01b03909116815260200161013a565b610196610191366004610e48565b6103a5565b005b6101966101a6366004610e72565b6103b4565b6101966101b9366004610e72565b610444565b6101966101cc366004610f3a565b610464565b61016b6101df366004610e18565b610478565b6101f76101f2366004610f83565b610483565b60405190815260200161013a565b6101f7610213366004610f83565b6104b7565b6101966104ff565b6006546001600160a01b031661016b565b61014b610513565b610196610247366004610f9e565b610522565b61019661025a366004610fda565b61052d565b61014b61026d366004610e18565b610545565b61012e610280366004611056565b6105ad565b610196610293366004610f83565b6105db565b60006001600160e01b031982166380ac58cd60e01b14806102c957506001600160e01b03198216635b5e139f60e01b145b806102e457506301ffc9a760e01b6001600160e01b03198316145b92915050565b6060600080546102f990611089565b80601f016020809104026020016040519081016040528092919081815260200182805461032590611089565b80156103725780601f1061034757610100808354040283529160200191610372565b820191906000526020600020905b81548152906001019060200180831161035557829003601f168201915b5050505050905090565b600061038782610619565b506000828152600460205260409020546001600160a01b03166102e4565b6103b0828233610652565b5050565b6001600160a01b0382166103e357604051633250574960e11b8152600060048201526024015b60405180910390fd5b60006103f083833361065f565b9050836001600160a01b0316816001600160a01b03161461043e576040516364283d7b60e01b81526001600160a01b03808616600483015260248201849052821660448201526064016103da565b50505050565b61045f8383836040518060200160405280600081525061052d565b505050565b61046c610758565b60086103b08282611109565b60006102e482610619565b600061048d610758565b6007805490600061049d836111c9565b90915550506007546104af8382610785565b90505b919050565b60006001600160a01b0382166104e3576040516322718ad960e21b8152600060048201526024016103da565b506001600160a01b031660009081526003602052604090205490565b610507610758565b610511600061079f565b565b6060600180546102f990611089565b6103b03383836107f1565b6105388484846103b4565b61043e3385858585610890565b606061055082610619565b50600061055b6109bb565b9050600081511161057b57604051806020016040528060008152506105a6565b80610585846109ca565b6040516020016105969291906111f0565b6040516020818303038152906040525b9392505050565b6001600160a01b03918216600090815260056020908152604080832093909416825291909152205460ff1690565b6105e3610758565b6001600160a01b03811661060d57604051631e4fbdf760e01b8152600060048201526024016103da565b6106168161079f565b50565b6000818152600260205260408120546001600160a01b0316806104af57604051637e27328960e01b8152600481018490526024016103da565b61045f8383836001610a5d565b6000828152600260205260408120546001600160a01b039081169083161561068c5761068c818486610b63565b6001600160a01b038116156106ca576106a9600085600080610a5d565b6001600160a01b038116600090815260036020526040902080546000190190555b6001600160a01b038516156106f9576001600160a01b0385166000908152600360205260409020805460010190555b60008481526002602052604080822080546001600160a01b0319166001600160a01b0389811691821790925591518793918516917fddf252ad1be2c89b69c2b068fc378daa952ba7f163c4a11628f55a4df523b3ef91a4949350505050565b6006546001600160a01b031633146105115760405163118cdaa760e01b81523360048201526024016103da565b6103b0828260405180602001604052806000815250610bc7565b600680546001600160a01b038381166001600160a01b0319831681179093556040519116919082907f8be0079c531659141344cd1fd0a4f28419497f9722a3daafe3b4186f6b6457e090600090a35050565b6001600160a01b03821661082357604051630b61174360e31b81526001600160a01b03831660048201526024016103da565b6001600160a01b03838116600081815260056020908152604080832094871680845294825291829020805460ff191686151590811790915591519182527f17307eab39ab6107e8899845ad3d59bd9653f200f220920489ca2b5937696c31910160405180910390a3505050565b6001600160a01b0383163b156109b457604051630a85bd0160e11b81526001600160a01b0384169063150b7a02906108d290889088908790879060040161121f565b6020604051808303816000875af192505050801561090d575060408051601f3d908101601f1916820190925261090a9181019061125c565b60015b610976573d80801561093b576040519150601f19603f3d011682016040523d82523d6000602084013e610940565b606091505b50805160000361096e57604051633250574960e11b81526001600160a01b03851660048201526024016103da565b805181602001fd5b6001600160e01b03198116630a85bd0160e11b146109b257604051633250574960e11b81526001600160a01b03851660048201526024016103da565b505b5050505050565b6060600880546102f990611089565b606060006109d783610bdf565b600101905060008167ffffffffffffffff8111156109f7576109f7610eae565b6040519080825280601f01601f191660200182016040528015610a21576020820181803683370190505b5090508181016020015b600019016f181899199a1a9b1b9c1cb0b131b232b360811b600a86061a8153600a8504945084610a2b57509392505050565b8080610a7157506001600160a01b03821615155b15610b33576000610a8184610619565b90506001600160a01b03831615801590610aad5750826001600160a01b0316816001600160a01b031614155b8015610ac05750610abe81846105ad565b155b15610ae95760405163a9fbf51f60e01b81526001600160a01b03841660048201526024016103da565b8115610b315783856001600160a01b0316826001600160a01b03167f8c5be1e5ebec7d5bd14f71427d1e84f3dd0314c0f7b2291e5b200ac8c7c3b92560405160405180910390a45b505b5050600090815260046020526040902080546001600160a01b0319166001600160a01b0392909216919091179055565b610b6e838383610cb7565b61045f576001600160a01b038316610b9c57604051637e27328960e01b8152600481018290526024016103da565b60405163177e802f60e01b81526001600160a01b0383166004820152602481018290526044016103da565b610bd18383610d1d565b61045f336000858585610890565b60008072184f03e93ff9f4daa797ed6e38ed64bf6a1f0160401b8310610c1e5772184f03e93ff9f4daa797ed6e38ed64bf6a1f0160401b830492506040015b6d04ee2d6d415b85acef81000000008310610c4a576d04ee2d6d415b85acef8100000000830492506020015b662386f26fc100008310610c6857662386f26fc10000830492506010015b6305f5e1008310610c80576305f5e100830492506008015b6127108310610c9457612710830492506004015b60648310610ca6576064830492506002015b600a83106104af5760010192915050565b60006001600160a01b03831615801590610d155750826001600160a01b0316846001600160a01b03161480610cf15750610cf184846105ad565b80610d1557506000828152600460205260409020546001600160a01b038481169116145b949350505050565b6001600160a01b038216610d4757604051633250574960e11b8152600060048201526024016103da565b6000610d558383600061065f565b90506001600160a01b0381161561045f576040516339e3563760e11b8152600060048201526024016103da565b6001600160e01b03198116811461061657600080fd5b600060208284031215610daa57600080fd5b81356105a681610d82565b60005b83811015610dd0578181015183820152602001610db8565b50506000910152565b60008151808452610df1816020860160208601610db5565b601f01601f19169290920160200192915050565b6020815260006105a66020830184610dd9565b600060208284031215610e2a57600080fd5b5035919050565b80356001600160a01b03811681146104b257600080fd5b60008060408385031215610e5b57600080fd5b610e6483610e31565b946020939093013593505050565b600080600060608486031215610e8757600080fd5b610e9084610e31565b9250610e9e60208501610e31565b9150604084013590509250925092565b634e487b7160e01b600052604160045260246000fd5b600067ffffffffffffffff80841115610edf57610edf610eae565b604051601f8501601f19908116603f01168101908282118183101715610f0757610f07610eae565b81604052809350858152868686011115610f2057600080fd5b858560208301376000602087830101525050509392505050565b600060208284031215610f4c57600080fd5b813567ffffffffffffffff811115610f6357600080fd5b8201601f81018413610f7457600080fd5b610d1584823560208401610ec4565b600060208284031215610f9557600080fd5b6105a682610e31565b60008060408385031215610fb157600080fd5b610fba83610e31565b915060208301358015158114610fcf57600080fd5b809150509250929050565b60008060008060808587031215610ff057600080fd5b610ff985610e31565b935061100760208601610e31565b925060408501359150606085013567ffffffffffffffff81111561102a57600080fd5b8501601f8101871361103b57600080fd5b61104a87823560208401610ec4565b91505092959194509250565b6000806040838503121561106957600080fd5b61107283610e31565b915061108060208401610e31565b90509250929050565b600181811c9082168061109d57607f821691505b6020821081036110bd57634e487b7160e01b600052602260045260246000fd5b50919050565b601f82111561045f57600081815260208120601f850160051c810160208610156110ea5750805b601f850160051c820191505b818110156109b2578281556001016110f6565b815167ffffffffffffffff81111561112357611123610eae565b611137816111318454611089565b846110c3565b602080601f83116001811461116c57600084156111545750858301515b600019600386901b1c1916600185901b1785556109b2565b600085815260208120601f198616915b8281101561119b5788860151825594840194600190910190840161117c565b50858210156111b95787850151600019600388901b60f8161c191681555b5050505050600190811b01905550565b6000600182016111e957634e487b7160e01b600052601160045260246000fd5b5060010190565b60008351611202818460208801610db5565b835190830190611216818360208801610db5565b01949350505050565b6001600160a01b038581168252841660208201526040810183905260806060820181905260009061125290830184610dd9565b9695505050505050565b60006020828403121561126e57600080fd5b81516105a681610d8256fea2646970667358221220af10e2e66f382bcccc9a056193481846eed386300ad48b682ef51a2e35bce1ab64736f6c63430008140033",
  "linkReferences": {},
  "deployedLinkReferences": {}
}