{
  "_format": "hh-sol-artifact-1",
  "contractName": "LearnToEarn",
  "sourceName": "contracts/LearnToEarn.sol",
  "abi": [
    {
      "inputs": [
        {
          "internalType": "address",
          "name": "tokenAddress",
          "type": "address"
        }
      ],
      "stateMutability": "nonpayable",
      "type": "constructor"
    },
    {
      "inputs": [],
      "name": "learnToken",
      "outputs": [
        {
          "internalType": "contract LearnToken",
          "name": "",
          "type": "address"
        }
      ],
      "stateMutability": "view",
      "type": "function"
    },
    {
      "inputs": [
        {
          "internalType": "address",
          "name": "",
          "type": "address"
        }
      ],
      "name": "progress",
      "outputs": [
        {
          "internalType": "uint256",
          "name": "",
          "type": "uint256"
        }
      ],
      "stateMutability": "view",
      "type": "function"
    },
    {
      "inputs": [],
      "name": "rewardPerProgress",
      "outputs": [
        {
          "internalType": "uint256",
          "name": "",
          "type": "uint256"
        }
      ],
      "stateMutability": "view",
      "type": "function"
    },
    {
      "inputs": [
        {
          "internalType": "uint256",
          "name": "newReward",
          "type": "uint256"
        }
      ],
      "name": "setRewardPerProgress",
      "outputs": [],
      "stateMutability": "nonpayable",
      "type": "function"
    },
    {
      "inputs": [
        {
          "internalType": "address",
          "name": "learner",
          "type": "address"
        },
        {
          "internalType": "uint256",
          "name": "progressUpdate",
          "type": "uint256"
        }
      ],
      "name": "updateProgress",
      "outputs": [],
      "stateMutability": "nonpayable",
      "type": "function"
    }
  ],
  "bytecode": "0x6080604052678ac7230489e8000060025534801561001c57600080fd5b50604051610880380380610880833981810160405281019061003e91906100e7565b806000806101000a81548173ffffffffffffffffffffffffffffffffffffffff021916908373ffffffffffffffffffffffffffffffffffffffff16021790555050610114565b600080fd5b600073ffffffffffffffffffffffffffffffffffffffff82169050919050565b60006100b482610089565b9050919050565b6100c4816100a9565b81146100cf57600080fd5b50565b6000815190506100e1816100bb565b92915050565b6000602082840312156100fd576100fc610084565b5b600061010b848285016100d2565b91505092915050565b61075d806101236000396000f3fe608060405234801561001057600080fd5b50600436106100575760003560e01c8063472e411d1461005c5780635f50020f1461007a5780636f2059d214610096578063c7e82048146100b2578063da8589a2146100d0575b600080fd5b610064610100565b604051610071919061034d565b60405180910390f35b610094600480360381019061008f91906103f7565b610106565b005b6100b060048036038101906100ab9190610437565b6102ee565b005b6100ba6102f8565b6040516100c791906104c3565b60405180910390f35b6100ea60048036038101906100e591906104de565b61031c565b6040516100f7919061034d565b60405180910390f35b60025481565b80600160008473ffffffffffffffffffffffffffffffffffffffff1673ffffffffffffffffffffffffffffffffffffffff1681526020019081526020016000206000828254610155919061053a565b9250508190555060006002548261016c919061056e565b90508060008054906101000a900473ffffffffffffffffffffffffffffffffffffffff1673ffffffffffffffffffffffffffffffffffffffff166370a08231306040518263ffffffff1660e01b81526004016101c891906105bf565b602060405180830381865afa1580156101e5573d6000803e3d6000fd5b505050506040513d601f19601f8201168201806040525081019061020991906105ef565b101561024a576040517f08c379a000000000000000000000000000000000000000000000000000000000815260040161024190610679565b60405180910390fd5b60008054906101000a900473ffffffffffffffffffffffffffffffffffffffff1673ffffffffffffffffffffffffffffffffffffffff1663a9059cbb84836040518363ffffffff1660e01b81526004016102a5929190610699565b6020604051808303816000875af11580156102c4573d6000803e3d6000fd5b505050506040513d601f19601f820116820180604052508101906102e891906106fa565b50505050565b8060028190555050565b60008054906101000a900473ffffffffffffffffffffffffffffffffffffffff1681565b60016020528060005260406000206000915090505481565b6000819050919050565b61034781610334565b82525050565b6000602082019050610362600083018461033e565b92915050565b600080fd5b600073ffffffffffffffffffffffffffffffffffffffff82169050919050565b60006103988261036d565b9050919050565b6103a88161038d565b81146103b357600080fd5b50565b6000813590506103c58161039f565b92915050565b6103d481610334565b81146103df57600080fd5b50565b6000813590506103f1816103cb565b92915050565b6000806040838503121561040e5761040d610368565b5b600061041c858286016103b6565b925050602061042d858286016103e2565b9150509250929050565b60006020828403121561044d5761044c610368565b5b600061045b848285016103e2565b91505092915050565b6000819050919050565b600061048961048461047f8461036d565b610464565b61036d565b9050919050565b600061049b8261046e565b9050919050565b60006104ad82610490565b9050919050565b6104bd816104a2565b82525050565b60006020820190506104d860008301846104b4565b92915050565b6000602082840312156104f4576104f3610368565b5b6000610502848285016103b6565b91505092915050565b7f4e487b7100000000000000000000000000000000000000000000000000000000600052601160045260246000fd5b600061054582610334565b915061055083610334565b92508282019050808211156105685761056761050b565b5b92915050565b600061057982610334565b915061058483610334565b925082820261059281610334565b915082820484148315176105a9576105a861050b565b5b5092915050565b6105b98161038d565b82525050565b60006020820190506105d460008301846105b0565b92915050565b6000815190506105e9816103cb565b92915050565b60006020828403121561060557610604610368565b5b6000610613848285016105da565b91505092915050565b600082825260208201905092915050565b7f4e6f7420656e6f75676820746f6b656e7320746f207265776172640000000000600082015250565b6000610663601b8361061c565b915061066e8261062d565b602082019050919050565b6000602082019050818103600083015261069281610656565b9050919050565b60006040820190506106ae60008301856105b0565b6106bb602083018461033e565b9392505050565b60008115159050919050565b6106d7816106c2565b81146106e257600080fd5b50565b6000815190506106f4816106ce565b92915050565b6000602082840312156107105761070f610368565b5b600061071e848285016106e5565b9150509291505056fea2646970667358221220bab08421b288f9e25d537698332526c3c297ea5b0e9a4ebfbdca073be638ce7b64736f6c63430008140033",
  "linkReferences": {},
  "deployedLinkReferences": {}
}